{
  "contractName": "BananaTokenCrowdsale",
  "abi": [
    {
      "constant": true,
      "inputs": [],
      "name": "hasClosed",
      "outputs": [
        {
          "name": "",
          "type": "bool"
        }
      ],
      "payable": false,
      "stateMutability": "view",
      "type": "function",
      "signature": "0x1515bc2b"
    },
    {
      "constant": true,
      "inputs": [],
      "name": "rate",
      "outputs": [
        {
          "name": "",
          "type": "uint256"
        }
      ],
      "payable": false,
      "stateMutability": "view",
      "type": "function",
      "signature": "0x2c4e722e"
    },
    {
      "constant": true,
      "inputs": [],
      "name": "weiRaised",
      "outputs": [
        {
          "name": "",
          "type": "uint256"
        }
      ],
      "payable": false,
      "stateMutability": "view",
      "type": "function",
      "signature": "0x4042b66f"
    },
    {
      "constant": true,
      "inputs": [],
      "name": "closingTime",
      "outputs": [
        {
          "name": "",
          "type": "uint256"
        }
      ],
      "payable": false,
      "stateMutability": "view",
      "type": "function",
      "signature": "0x4b6753bc"
    },
    {
      "constant": true,
      "inputs": [],
      "name": "wallet",
      "outputs": [
        {
          "name": "",
          "type": "address"
        }
      ],
      "payable": false,
      "stateMutability": "view",
      "type": "function",
      "signature": "0x521eb273"
    },
    {
      "constant": true,
      "inputs": [],
      "name": "openingTime",
      "outputs": [
        {
          "name": "",
          "type": "uint256"
        }
      ],
      "payable": false,
      "stateMutability": "view",
      "type": "function",
      "signature": "0xb7a8807c"
    },
    {
      "constant": false,
      "inputs": [
        {
          "name": "_beneficiary",
          "type": "address"
        }
      ],
      "name": "buyTokens",
      "outputs": [],
      "payable": true,
      "stateMutability": "payable",
      "type": "function",
      "signature": "0xec8ac4d8"
    },
    {
      "constant": true,
      "inputs": [],
      "name": "token",
      "outputs": [
        {
          "name": "",
          "type": "address"
        }
      ],
      "payable": false,
      "stateMutability": "view",
      "type": "function",
      "signature": "0xfc0c546a"
    },
    {
      "inputs": [
        {
          "name": "_openingTime",
          "type": "uint256"
        },
        {
          "name": "_closingTime",
          "type": "uint256"
        },
        {
          "name": "_rate",
          "type": "uint256"
        },
        {
          "name": "_wallet",
          "type": "address"
        },
        {
          "name": "_token",
          "type": "address"
        }
      ],
      "payable": false,
      "stateMutability": "nonpayable",
      "type": "constructor",
      "signature": "constructor"
    },
    {
      "payable": true,
      "stateMutability": "payable",
      "type": "fallback"
    },
    {
      "anonymous": false,
      "inputs": [
        {
          "indexed": true,
          "name": "purchaser",
          "type": "address"
        },
        {
          "indexed": true,
          "name": "beneficiary",
          "type": "address"
        },
        {
          "indexed": false,
          "name": "value",
          "type": "uint256"
        },
        {
          "indexed": false,
          "name": "amount",
          "type": "uint256"
        }
      ],
      "name": "TokenPurchase",
      "type": "event",
      "signature": "0x623b3804fa71d67900d064613da8f94b9617215ee90799290593e1745087ad18"
    }
  ],
  "bytecode": "0x608060405234801561001057600080fd5b5060405160a08061086b833981018060405260a081101561003057600080fd5b810190808051906020019092919080519060200190929190805190602001909291908051906020019092919080519060200190929190505050848484848460008311151561007d57600080fd5b600073ffffffffffffffffffffffffffffffffffffffff168273ffffffffffffffffffffffffffffffffffffffff16141515156100b957600080fd5b8260028190555081600160006101000a81548173ffffffffffffffffffffffffffffffffffffffff021916908373ffffffffffffffffffffffffffffffffffffffff160217905550806000806101000a81548173ffffffffffffffffffffffffffffffffffffffff021916908373ffffffffffffffffffffffffffffffffffffffff16021790555050505042821015151561015357600080fd5b81811015151561016257600080fd5b8160048190555080600581905550505050505050506106e5806101866000396000f3fe60806040526004361061008e576000357c0100000000000000000000000000000000000000000000000000000000900463ffffffff1680631515bc2b146100995780632c4e722e146100c85780634042b66f146100f35780634b6753bc1461011e578063521eb27314610149578063b7a8807c146101a0578063ec8ac4d8146101cb578063fc0c546a1461020f575b61009733610266565b005b3480156100a557600080fd5b506100ae610335565b604051808215151515815260200191505060405180910390f35b3480156100d457600080fd5b506100dd610341565b6040518082815260200191505060405180910390f35b3480156100ff57600080fd5b50610108610347565b6040518082815260200191505060405180910390f35b34801561012a57600080fd5b5061013361034d565b6040518082815260200191505060405180910390f35b34801561015557600080fd5b5061015e610353565b604051808273ffffffffffffffffffffffffffffffffffffffff1673ffffffffffffffffffffffffffffffffffffffff16815260200191505060405180910390f35b3480156101ac57600080fd5b506101b5610379565b6040518082815260200191505060405180910390f35b61020d600480360360208110156101e157600080fd5b81019080803573ffffffffffffffffffffffffffffffffffffffff169060200190929190505050610266565b005b34801561021b57600080fd5b5061022461037f565b604051808273ffffffffffffffffffffffffffffffffffffffff1673ffffffffffffffffffffffffffffffffffffffff16815260200191505060405180910390f35b600034905061027582826103a4565b6000610280826103d1565b9050610297826003546103ef90919063ffffffff16565b6003819055506102a7838261040b565b8273ffffffffffffffffffffffffffffffffffffffff163373ffffffffffffffffffffffffffffffffffffffff167f623b3804fa71d67900d064613da8f94b9617215ee90799290593e1745087ad188484604051808381526020018281526020019250505060405180910390a361031e8383610419565b61032661041d565b610330838361051f565b505050565b60006005544211905090565b60025481565b60035481565b60055481565b600160009054906101000a900473ffffffffffffffffffffffffffffffffffffffff1681565b60045481565b6000809054906101000a900473ffffffffffffffffffffffffffffffffffffffff1681565b60045442101580156103b857506005544211155b15156103c357600080fd5b6103cd8282610523565b5050565b60006103e86002548361057390919063ffffffff16565b9050919050565b6000818301905082811015151561040257fe5b80905092915050565b61041582826105ab565b5050565b5050565b6000809054906101000a900473ffffffffffffffffffffffffffffffffffffffff1673ffffffffffffffffffffffffffffffffffffffff1663a9059cbb33346040518363ffffffff167c0100000000000000000000000000000000000000000000000000000000028152600401808373ffffffffffffffffffffffffffffffffffffffff1673ffffffffffffffffffffffffffffffffffffffff16815260200182815260200192505050602060405180830381600087803b1580156104e157600080fd5b505af11580156104f5573d6000803e3d6000fd5b505050506040513d602081101561050b57600080fd5b810190808051906020019092919050505050565b5050565b600073ffffffffffffffffffffffffffffffffffffffff168273ffffffffffffffffffffffffffffffffffffffff161415151561055f57600080fd5b6000811415151561056f57600080fd5b5050565b60008083141561058657600090506105a5565b818302905081838281151561059757fe5b041415156105a157fe5b8090505b92915050565b6000809054906101000a900473ffffffffffffffffffffffffffffffffffffffff1673ffffffffffffffffffffffffffffffffffffffff166340c10f1983836040518363ffffffff167c0100000000000000000000000000000000000000000000000000000000028152600401808373ffffffffffffffffffffffffffffffffffffffff1673ffffffffffffffffffffffffffffffffffffffff16815260200182815260200192505050602060405180830381600087803b15801561066f57600080fd5b505af1158015610683573d6000803e3d6000fd5b505050506040513d602081101561069957600080fd5b810190808051906020019092919050505015156106b557600080fd5b505056fea165627a7a72305820034cab63e367b09cb2cb0b25245b0f4e84b6b75dbab6d07b7763a13b14cd6b790029",
  "source": "pragma solidity >=0.5.0 <0.6.0;\nimport './BananaToken.sol';\nimport 'zeppelin-solidity/contracts/crowdsale/emission/MintedCrowdsale.sol';\nimport 'zeppelin-solidity/contracts/crowdsale/validation/TimedCrowdsale.sol';\n\ncontract BananaTokenCrowdsale is TimedCrowdsale, MintedCrowdsale {\n    constructor\n        (\n            uint256 _openingTime,// ICO開始時間\n            uint256 _closingTime,// ICO終了時間\n            uint256 _rate,// ETHとのトレードレート\n            address payable _wallet,// ETH集めるウォレットのアドレス\n            MintableToken _token// 販売中のトークンのアドレス\n        )\n        public\n        Crowdsale(_rate, _wallet, _token)\n        TimedCrowdsale(_openingTime, _closingTime){}\n}\n",
  "sourcePath": "/home/pi/ethereum/DApp/banana_token_ico/contracts/BananaTokenCrowdsale.sol",
  "compiler": {
    "name": "solc",
    "version": "0.5.0+commit.1d4f565a.Emscripten.clang"
  },
  "schemaVersion": "3.0.3",
  "updatedAt": "2019-05-26T10:24:54.449Z",
  "devdoc": {
    "methods": {
      "buyTokens(address)": {
        "details": "low level token purchase ***DO NOT OVERRIDE***",
        "params": {
          "_beneficiary": "Address performing the token purchase"
        }
      },
      "hasClosed()": {
        "details": "Checks whether the period in which the crowdsale is open has already elapsed.",
        "return": "Whether crowdsale period has elapsed"
      }
    }
  },
  "userdoc": {
    "methods": {}
  }
}